{"abi":[{"type":"constructor","inputs":[{"name":"_token","type":"address","internalType":"address"}],"stateMutability":"nonpayable"},{"type":"function","name":"REWARD_RATE","inputs":[],"outputs":[{"name":"","type":"uint256","internalType":"uint256"}],"stateMutability":"view"},{"type":"function","name":"calculateRewards","inputs":[{"name":"user","type":"address","internalType":"address"}],"outputs":[{"name":"","type":"uint256","internalType":"uint256"}],"stateMutability":"view"},{"type":"function","name":"claimRewards","inputs":[],"outputs":[],"stateMutability":"nonpayable"},{"type":"function","name":"emergencyWithdraw","inputs":[{"name":"_token","type":"address","internalType":"address"},{"name":"amount","type":"uint256","internalType":"uint256"}],"outputs":[],"stateMutability":"nonpayable"},{"type":"function","name":"getUserStake","inputs":[{"name":"user","type":"address","internalType":"address"}],"outputs":[{"name":"","type":"uint256","internalType":"uint256"}],"stateMutability":"view"},{"type":"function","name":"lastUpdate","inputs":[{"name":"","type":"address","internalType":"address"}],"outputs":[{"name":"","type":"uint256","internalType":"uint256"}],"stateMutability":"view"},{"type":"function","name":"owner","inputs":[],"outputs":[{"name":"","type":"address","internalType":"address"}],"stateMutability":"view"},{"type":"function","name":"renounceOwnership","inputs":[],"outputs":[],"stateMutability":"nonpayable"},{"type":"function","name":"rewards","inputs":[{"name":"","type":"address","internalType":"address"}],"outputs":[{"name":"","type":"uint256","internalType":"uint256"}],"stateMutability":"view"},{"type":"function","name":"stake","inputs":[{"name":"amount","type":"uint256","internalType":"uint256"}],"outputs":[],"stateMutability":"nonpayable"},{"type":"function","name":"stakes","inputs":[{"name":"","type":"address","internalType":"address"}],"outputs":[{"name":"","type":"uint256","internalType":"uint256"}],"stateMutability":"view"},{"type":"function","name":"token","inputs":[],"outputs":[{"name":"","type":"address","internalType":"contract IERC20"}],"stateMutability":"view"},{"type":"function","name":"totalStaked","inputs":[],"outputs":[{"name":"","type":"uint256","internalType":"uint256"}],"stateMutability":"view"},{"type":"function","name":"transferOwnership","inputs":[{"name":"newOwner","type":"address","internalType":"address"}],"outputs":[],"stateMutability":"nonpayable"},{"type":"function","name":"unstake","inputs":[{"name":"amount","type":"uint256","internalType":"uint256"}],"outputs":[],"stateMutability":"nonpayable"},{"type":"event","name":"OwnershipTransferred","inputs":[{"name":"previousOwner","type":"address","indexed":true,"internalType":"address"},{"name":"newOwner","type":"address","indexed":true,"internalType":"address"}],"anonymous":false},{"type":"event","name":"RewardsClaimed","inputs":[{"name":"user","type":"address","indexed":true,"internalType":"address"},{"name":"amount","type":"uint256","indexed":false,"internalType":"uint256"}],"anonymous":false},{"type":"event","name":"Staked","inputs":[{"name":"user","type":"address","indexed":true,"internalType":"address"},{"name":"amount","type":"uint256","indexed":false,"internalType":"uint256"}],"anonymous":false},{"type":"event","name":"Unstaked","inputs":[{"name":"user","type":"address","indexed":true,"internalType":"address"},{"name":"amount","type":"uint256","indexed":false,"internalType":"uint256"}],"anonymous":false},{"type":"error","name":"OwnableInvalidOwner","inputs":[{"name":"owner","type":"address","internalType":"address"}]},{"type":"error","name":"OwnableUnauthorizedAccount","inputs":[{"name":"account","type":"address","internalType":"address"}]},{"type":"error","name":"ReentrancyGuardReentrantCall","inputs":[]},{"type":"error","name":"SafeERC20FailedOperation","inputs":[{"name":"token","type":"address","internalType":"address"}]}],"bytecode":{"object":"0x60a060405234801561000f575f5ffd5b506040516116f43803806116f4833981810160405281019061003191906102cf565b33600161005061004561017e60201b60201c565b6101a760201b60201c565b5f01819055505f73ffffffffffffffffffffffffffffffffffffffff168173ffffffffffffffffffffffffffffffffffffffff16036100c6575f6040517f1e4fbdf70000000000000000000000000000000000000000000000000000000081526004016100bd9190610309565b60405180910390fd5b6100d5816101b060201b60201c565b505f73ffffffffffffffffffffffffffffffffffffffff168173ffffffffffffffffffffffffffffffffffffffff1603610144576040517f08c379a000000000000000000000000000000000000000000000000000000000815260040161013b9061037c565b60405180910390fd5b8073ffffffffffffffffffffffffffffffffffffffff1660808173ffffffffffffffffffffffffffffffffffffffff16815250505061039a565b5f7f9b779b17422d0df92223018b32b4d1fa46e071723d6817e2486d003becc55f005f1b905090565b5f819050919050565b5f5f5f9054906101000a900473ffffffffffffffffffffffffffffffffffffffff169050815f5f6101000a81548173ffffffffffffffffffffffffffffffffffffffff021916908373ffffffffffffffffffffffffffffffffffffffff1602179055508173ffffffffffffffffffffffffffffffffffffffff168173ffffffffffffffffffffffffffffffffffffffff167f8be0079c531659141344cd1fd0a4f28419497f9722a3daafe3b4186f6b6457e060405160405180910390a35050565b5f5ffd5b5f73ffffffffffffffffffffffffffffffffffffffff82169050919050565b5f61029e82610275565b9050919050565b6102ae81610294565b81146102b8575f5ffd5b50565b5f815190506102c9816102a5565b92915050565b5f602082840312156102e4576102e3610271565b5b5f6102f1848285016102bb565b91505092915050565b61030381610294565b82525050565b5f60208201905061031c5f8301846102fa565b92915050565b5f82825260208201905092915050565b7f496e76616c696420746f6b656e206164647265737300000000000000000000005f82015250565b5f610366601583610322565b915061037182610332565b602082019050919050565b5f6020820190508181035f8301526103938161035a565b9050919050565b60805161132d6103c75f395f81816104520152818161060e0152818161081101526109fb015261132d5ff3fe608060405234801561000f575f5ffd5b50600436106100f3575f3560e01c8063817b1cd211610095578063bbadc93a11610064578063bbadc93a14610249578063cb03fb1e14610279578063f2fde38b146102a9578063fc0c546a146102c5576100f3565b8063817b1cd2146101d55780638da5cb5b146101f357806395ccea6714610211578063a694fc3a1461022d576100f3565b8063372500ab116100d1578063372500ab146101735780635997bb371461017d57806364ab86751461019b578063715018a6146101cb576100f3565b80630700037d146100f757806316934fc4146101275780632e17de7814610157575b5f5ffd5b610111600480360381019061010c9190610f50565b6102e3565b60405161011e9190610f93565b60405180910390f35b610141600480360381019061013c9190610f50565b6102f8565b60405161014e9190610f93565b60405180910390f35b610171600480360381019061016c9190610fd6565b61030d565b005b61017b6104ef565b005b6101856106ab565b6040516101929190610f93565b60405180910390f35b6101b560048036038101906101b09190610f50565b6106b8565b6040516101c29190610f93565b60405180910390f35b6101d3610738565b005b6101dd61074b565b6040516101ea9190610f93565b60405180910390f35b6101fb610751565b6040516102089190611010565b60405180910390f35b61022b60048036038101906102269190611029565b610778565b005b61024760048036038101906102429190610fd6565b6107b6565b005b610263600480360381019061025e9190610f50565b61091a565b6040516102709190610f93565b60405180910390f35b610293600480360381019061028e9190610f50565b610960565b6040516102a09190610f93565b60405180910390f35b6102c360048036038101906102be9190610f50565b610975565b005b6102cd6109f9565b6040516102da91906110c2565b60405180910390f35b6003602052805f5260405f205f915090505481565b6001602052805f5260405f205f915090505481565b610315610a1d565b5f8111610357576040517f08c379a000000000000000000000000000000000000000000000000000000000815260040161034e90611135565b60405180910390fd5b8060015f3373ffffffffffffffffffffffffffffffffffffffff1673ffffffffffffffffffffffffffffffffffffffff1681526020019081526020015f205410156103d7576040517f08c379a00000000000000000000000000000000000000000000000000000000081526004016103ce9061119d565b60405180910390fd5b6103e033610a3f565b8060015f3373ffffffffffffffffffffffffffffffffffffffff1673ffffffffffffffffffffffffffffffffffffffff1681526020019081526020015f205f82825461042c91906111e8565b925050819055508060025f82825461044491906111e8565b9250508190555061049633827f000000000000000000000000000000000000000000000000000000000000000073ffffffffffffffffffffffffffffffffffffffff16610b7f9092919063ffffffff16565b3373ffffffffffffffffffffffffffffffffffffffff167f0f5bb82176feb1b5e747e28471aa92156a04d9f3ab9f45f28e2d704232b93f75826040516104dc9190610f93565b60405180910390a26104ec610bd2565b50565b6104f7610a1d565b61050033610a3f565b5f60035f3373ffffffffffffffffffffffffffffffffffffffff1673ffffffffffffffffffffffffffffffffffffffff1681526020019081526020015f205490505f8111610583576040517f08c379a000000000000000000000000000000000000000000000000000000000815260040161057a90611265565b60405180910390fd5b5f60035f3373ffffffffffffffffffffffffffffffffffffffff1673ffffffffffffffffffffffffffffffffffffffff1681526020019081526020015f20819055504360045f3373ffffffffffffffffffffffffffffffffffffffff1673ffffffffffffffffffffffffffffffffffffffff1681526020019081526020015f208190555061065233827f000000000000000000000000000000000000000000000000000000000000000073ffffffffffffffffffffffffffffffffffffffff16610b7f9092919063ffffffff16565b3373ffffffffffffffffffffffffffffffffffffffff167ffc30cddea38e2bf4d6ea7d3f9ed3b6ad7f176419f4963bd81318067a4aee73fe826040516106989190610f93565b60405180910390a2506106a9610bd2565b565b68056bc75e2d6310000081565b5f5f60045f8473ffffffffffffffffffffffffffffffffffffffff1673ffffffffffffffffffffffffffffffffffffffff1681526020019081526020015f205490505f810361070a575f915050610733565b5f814361071791906111e8565b905068056bc75e2d631000008161072e9190611283565b925050505b919050565b610740610bec565b6107495f610c73565b565b60025481565b5f5f5f9054906101000a900473ffffffffffffffffffffffffffffffffffffffff16905090565b610780610bec565b6107b261078b610751565b828473ffffffffffffffffffffffffffffffffffffffff16610b7f9092919063ffffffff16565b5050565b6107be610a1d565b5f8111610800576040517f08c379a00000000000000000000000000000000000000000000000000000000081526004016107f790611135565b60405180910390fd5b61080933610a3f565b6108563330837f000000000000000000000000000000000000000000000000000000000000000073ffffffffffffffffffffffffffffffffffffffff16610d34909392919063ffffffff16565b8060015f3373ffffffffffffffffffffffffffffffffffffffff1673ffffffffffffffffffffffffffffffffffffffff1681526020019081526020015f205f8282546108a291906112c4565b925050819055508060025f8282546108ba91906112c4565b925050819055503373ffffffffffffffffffffffffffffffffffffffff167f9e71bc8eea02a63969f509818f2dafb9254532904319f9dbda79b67bd34a5f3d826040516109079190610f93565b60405180910390a2610917610bd2565b50565b5f60015f8373ffffffffffffffffffffffffffffffffffffffff1673ffffffffffffffffffffffffffffffffffffffff1681526020019081526020015f20549050919050565b6004602052805f5260405f205f915090505481565b61097d610bec565b5f73ffffffffffffffffffffffffffffffffffffffff168173ffffffffffffffffffffffffffffffffffffffff16036109ed575f6040517f1e4fbdf70000000000000000000000000000000000000000000000000000000081526004016109e49190611010565b60405180910390fd5b6109f681610c73565b50565b7f000000000000000000000000000000000000000000000000000000000000000081565b610a25610d89565b6002610a37610a32610dca565b610df3565b5f0181905550565b5f60045f8373ffffffffffffffffffffffffffffffffffffffff1673ffffffffffffffffffffffffffffffffffffffff1681526020019081526020015f205490505f8103610acf574360045f8473ffffffffffffffffffffffffffffffffffffffff1673ffffffffffffffffffffffffffffffffffffffff1681526020019081526020015f208190555050610b7c565b5f610ad9836106b8565b90505f811115610b37578060035f8573ffffffffffffffffffffffffffffffffffffffff1673ffffffffffffffffffffffffffffffffffffffff1681526020019081526020015f205f828254610b2f91906112c4565b925050819055505b4360045f8573ffffffffffffffffffffffffffffffffffffffff1673ffffffffffffffffffffffffffffffffffffffff1681526020019081526020015f208190555050505b50565b610b8c8383836001610dfc565b610bcd57826040517f5274afe7000000000000000000000000000000000000000000000000000000008152600401610bc49190611010565b60405180910390fd5b505050565b6001610be4610bdf610dca565b610df3565b5f0181905550565b610bf4610e5e565b73ffffffffffffffffffffffffffffffffffffffff16610c12610751565b73ffffffffffffffffffffffffffffffffffffffff1614610c7157610c35610e5e565b6040517f118cdaa7000000000000000000000000000000000000000000000000000000008152600401610c689190611010565b60405180910390fd5b565b5f5f5f9054906101000a900473ffffffffffffffffffffffffffffffffffffffff169050815f5f6101000a81548173ffffffffffffffffffffffffffffffffffffffff021916908373ffffffffffffffffffffffffffffffffffffffff1602179055508173ffffffffffffffffffffffffffffffffffffffff168173ffffffffffffffffffffffffffffffffffffffff167f8be0079c531659141344cd1fd0a4f28419497f9722a3daafe3b4186f6b6457e060405160405180910390a35050565b610d42848484846001610e65565b610d8357836040517f5274afe7000000000000000000000000000000000000000000000000000000008152600401610d7a9190611010565b60405180910390fd5b50505050565b610d91610ed6565b15610dc8576040517f3ee5aeb500000000000000000000000000000000000000000000000000000000815260040160405180910390fd5b565b5f7f9b779b17422d0df92223018b32b4d1fa46e071723d6817e2486d003becc55f005f1b905090565b5f819050919050565b5f5f63a9059cbb60e01b9050604051815f525f1960601c86166004528460245260205f60445f5f8b5af1925060015f51148316610e50578383151615610e44573d5f823e3d81fd5b5f873b113d1516831692505b806040525050949350505050565b5f33905090565b5f5f6323b872dd60e01b9050604051815f525f1960601c87166004525f1960601c86166024528460445260205f60645f5f8c5af1925060015f51148316610ec3578383151615610eb7573d5f823e3d81fd5b5f883b113d1516831692505b806040525f606052505095945050505050565b5f6002610ee9610ee4610dca565b610df3565b5f015414905090565b5f5ffd5b5f73ffffffffffffffffffffffffffffffffffffffff82169050919050565b5f610f1f82610ef6565b9050919050565b610f2f81610f15565b8114610f39575f5ffd5b50565b5f81359050610f4a81610f26565b92915050565b5f60208284031215610f6557610f64610ef2565b5b5f610f7284828501610f3c565b91505092915050565b5f819050919050565b610f8d81610f7b565b82525050565b5f602082019050610fa65f830184610f84565b92915050565b610fb581610f7b565b8114610fbf575f5ffd5b50565b5f81359050610fd081610fac565b92915050565b5f60208284031215610feb57610fea610ef2565b5b5f610ff884828501610fc2565b91505092915050565b61100a81610f15565b82525050565b5f6020820190506110235f830184611001565b92915050565b5f5f6040838503121561103f5761103e610ef2565b5b5f61104c85828601610f3c565b925050602061105d85828601610fc2565b9150509250929050565b5f819050919050565b5f61108a61108561108084610ef6565b611067565b610ef6565b9050919050565b5f61109b82611070565b9050919050565b5f6110ac82611091565b9050919050565b6110bc816110a2565b82525050565b5f6020820190506110d55f8301846110b3565b92915050565b5f82825260208201905092915050565b7f416d6f756e74206d757374206265203e203000000000000000000000000000005f82015250565b5f61111f6012836110db565b915061112a826110eb565b602082019050919050565b5f6020820190508181035f83015261114c81611113565b9050919050565b7f4e6f7420656e6f756768207374616b65640000000000000000000000000000005f82015250565b5f6111876011836110db565b915061119282611153565b602082019050919050565b5f6020820190508181035f8301526111b48161117b565b9050919050565b7f4e487b71000000000000000000000000000000000000000000000000000000005f52601160045260245ffd5b5f6111f282610f7b565b91506111fd83610f7b565b9250828203905081811115611215576112146111bb565b5b92915050565b7f4e6f2072657761726473000000000000000000000000000000000000000000005f82015250565b5f61124f600a836110db565b915061125a8261121b565b602082019050919050565b5f6020820190508181035f83015261127c81611243565b9050919050565b5f61128d82610f7b565b915061129883610f7b565b92508282026112a681610f7b565b915082820484148315176112bd576112bc6111bb565b5b5092915050565b5f6112ce82610f7b565b91506112d983610f7b565b92508282019050808211156112f1576112f06111bb565b5b9291505056fea2646970667358221220b31862397a7d9870959830638f28139bfa00d0777fa60d56e0798d10c0c9dbba64736f6c634300081e0033","linkReferences":{}},"methodIdentifiers":{"REWARD_RATE()":"5997bb37","calculateRewards(address)":"64ab8675","claimRewards()":"372500ab","emergencyWithdraw(address,uint256)":"95ccea67","getUserStake(address)":"bbadc93a","lastUpdate(address)":"cb03fb1e","owner()":"8da5cb5b","renounceOwnership()":"715018a6","rewards(address)":"0700037d","stake(uint256)":"a694fc3a","stakes(address)":"16934fc4","token()":"fc0c546a","totalStaked()":"817b1cd2","transferOwnership(address)":"f2fde38b","unstake(uint256)":"2e17de78"},"id":61}